:100000000C942A000C9447000C9447000C94470071
:100010000C9447000C94C8040C9447000C944700BF
:100020000C9447000C9447000C9447000C94470034
:100030000C94F7000C94C3050C9447000C944700F3
:100040000C9447000C9447000C9447000C94470014
:100050000C94470011241FBECFE5D8E0DEBFCDBF12
:1000600013E0A0E6B0E0E4E4FBE102C005900D92ED
:10007000AC31B107D9F714E0ACE1B3E001C01D9297
:10008000A83DB107E1F70E94AE090C94A00D0C94B5
:1000900000009AE0899FF0011124E45EFC4F148275
:1000A00015821682178210821182128213821086A4
:1000B00011860895CF930E94B60483EC90E00E94CD
:1000C000C304C0E08C2F0E944900CF5FCA30D1F733
:1000D000CF9108959AE0899FF0011124E45EFC4FCE
:1000E000808508950F931F939AE0899FF001112452
:1000F000E45EFC4F0081118122813381012B022BB0
:10010000032B51F4408351836283738314821582DD
:1001100016821782108611861F910F910895CF9332
:10012000DF9320E030E0DAE0D29FF001D39FF00DC2
:100130001124E45EFC4FC185C130E9F484819581CE
:10014000A681B7810196A11DB11D84839583A683E5
:10015000B783448155816681778180819181A281B5
:10016000B381481759076A077B0729F4148215825F
:1001700016821782C0872F5F3F4F2A303105A1F6C4
:10018000DF91CF9108950C948F009AE0899FF00140
:100190001124E45EFC4F8085882319F0108681E0ED
:1001A000089580E008959AE0899FF0011124E45EAB
:1001B000FC4F4081518162817381452B462B472B37
:1001C00011F081E0818708959AE0899FF001112460
:1001D000E45EFC4F118608959AE0899FF001112496
:1001E000E45EFC4F148215821682178208951F92D6
:1001F0000F920FB60F9211242F933F934F938F932B
:100200009F93EF93FF934FB180918D0490E02091E5
:100210008E0430918F042817390731F1E091910451
:10022000F091920440838091910490919204019600
:10023000909392048093910420918B0430918C04CC
:100240008217930741F48091890490918A049093D6
:1002500092048093910480918E0490918F04019672
:1002600090938F0480938E04FF91EF919F918F91D3
:100270004F913F912F910F900FBE0F901F901895A7
:100280000F931F93CF93DF93C62FFB0190E060E0A5
:10029000D5E02E2F2C1B2817F8F4B19128E030E080
:1002A00070E8192F111F1127111F990FA62FAA1FD0
:1002B000AA27AA1F9A2B660FA1E0072F0B2309F488
:1002C000A0E0A11711F06D279058769521503109C3
:1002D0002115310531F7DDCFFA0190836183DF917C
:1002E000CF911F910F910895811102C080E007C046
:1002F000813021F08230D1F783E001C081E06330AA
:1003000059F0643011F484600895653011F4886008
:100310000895663009F48C6008950F931F93CF936E
:10032000DF9300D0CDB7DEB78C011A82198280E24C
:10033000E8EBF4E0DF011D928A95E9F780919504DE
:1003400090919604019690939604809395042FEED5
:100350002093B804F80120812093B90421812093CF
:10036000BA048093BB049093BC04E381E53028F485
:10037000F0E0E555FF4F808101C081E08093BD042E
:10038000D80112966C9181E00E9474018093BE04A2
:10039000F80184818093BF0485818093C00420E0AC
:1003A000D80115968C91281760F4822F90E0F801FF
:1003B000E80FF91F3681FC01EF53FB4F30832F5FAD
:1003C000EFCFAE014F5F5F4F68EB74E08CE10E94AE
:1003D000400189818093D5048A818093D6048EEF71
:1003E0008093D7048091950490919604019621F40E
:1003F00010929604109295040F900F90DF91CF9178
:100400001F910F910895CF93DF93C82FD82FD270EB
:1004100081FF04C084E990E00E94B005C0FF02C0E3
:1004200081E0D11180E0DF91CF910895DF92EF92CA
:10043000FF920F931F93CF93DF9300D000D0CDB7DF
:10044000DEB78C017B011C821B82DC018C918F3E0C
:1004500009F06CC05F968C915F978E3F09F069C080
:100460005D968C915D9789835E968C918A83AE01AF
:100470004D5F5F4FB8018CE10E94400142E050E0C7
:10048000BE016D5F7F4FCE0101960E948A0A892BC3
:1004900009F052C0F801448150E0542F4427838171
:1004A000480F511D399620E030E08191D701A20F0D
:1004B000B31F1A968C932F5F3F4F24313105A9F754
:1004C000D80117968C911797F70187838C918083B9
:1004D00011968C911197818312968C911297828339
:1004E000548343831596EC91E53028F4F0E0EA5507
:1004F000FF4F808101C085E0D70115968C93F801EC
:1005000086810E940302D70116968C931697F801F4
:10051000808519968C931997258D30E05F963C93D2
:100520002E935E97878D90968C9308C092E0D92E7B
:1005300005C083E0D82E02C0DD24D3948D2D0F900A
:100540000F900F900F90DF91CF911F910F91FF901F
:10055000EF90DF900895CF93DF93CDB7DEB76A9722
:100560000FB6F894DEBF0FBECDBF8AEA898382EC56
:100570008A831C8283E08B831D8284E18E83FE014B
:100580003796CE014B9621E42193E817F907E1F75E
:10059000CE0101960E948D0160E288EB94E00E94FA
:1005A0004D086A960FB6F894DEBF0FBECDBFDF913F
:1005B000CF910895CF93DF93CDB7DEB76A970FB68B
:1005C000F894DEBF0FBECDBF8AEA898382EC8A83AE
:1005D0001C8283E08B8384E18E8391E09D83FE0106
:1005E0003796DF011D928A95E9F7CE014B9623E0FD
:1005F0002193E817F907E1F7CE0101960E948D01DA
:1006000060E288EB94E00E944D086A960FB6F89479
:10061000DEBF0FBECDBFDF91CF910895CF93DF93A3
:10062000CDB7DEB76A970FB6F894DEBF0FBECDBF69
:100630009AEA998392EC9A831C8293E09B8394E1DB
:100640009E8322E02D83FE013796DF011D929A954D
:10065000E9F78F83CE0101960E948D0160E288EB5D
:1006600094E00E944D086A960FB6F894DEBF0FBE64
:10067000CDBFDF91CF910895CF93DF93CDB7DEB794
:100680006A970FB6F894DEBF0FBECDBF9AEA998382
:1006900092EC9A831C8293E09B8394E19E8324E0F6
:1006A0002D83FE013796DF011D929A95E9F78F831E
:1006B000CE0101960E948D0160E288EB94E00E94D9
:1006C0004D086A960FB6F894DEBF0FBECDBFDF911E
:1006D000CF910895CF93DF93CDB7DEB76A970FB66A
:1006E000F894DEBF0FBECDBF2AEA298322EC2A830D
:1006F0001C8223E02B8334E13E832D83FE01379659
:100700009E01255E3F4FDC014D91CD014193E217E3
:10071000F307C9F7CE0101960E948D0160E288EBD4
:1007200094E00E944D086A960FB6F894DEBF0FBEA3
:10073000CDBFDF91CF910895CF92DF92EF92FF92DC
:100740000F931F93CF93DF93CDB7DEB764970FB6A8
:10075000F894DEBF0FBECDBF082F44E150E067E044
:1007600070E0CE0101960E94970A2FEF80E792E099
:10077000215080409040E1F700C00000802F0E948F
:100780000E03182F2FEF80E792E021508040904019
:10079000E1F700C00000113009F043C0E12CF12C5A
:1007A000D12CE02FF0E0E751FE4FC080DC14A8F41C
:1007B000CE0101960E946A03182F2FEF80E792E086
:1007C000215080409040E1F700C00000113011F44A
:1007D000E39401C0F394D394E9CF802F0E943C03AB
:1007E0002FEF80E792E0215080409040E1F700C079
:1007F000000080EB90E00E94B0058E2D90E00E94FA
:10080000820584EC90E00E94B00588EC90E00E94A4
:10081000B0058F2D90E00E94820586E492E00E9450
:10082000B005812F64960FB6F894DEBF0FBECDBF22
:10083000DF91CF911F910F91FF90EF90DF90CF90BC
:100840000895EF92FF920F931F93CF93DF93CDB74D
:10085000DEB7A1970FB6F894DEBF0FBECDBF7B0108
:100860008A01FA011082BE016F5F7F4F0E9416025B
:1008700088858530B9F58B85811105C08AED90E0BA
:100880000E94B0052FC0F80180838EEE90E00E9498
:10089000B005F801808190E00E9482058FEF90E022
:1008A0000E94B00511E08B858117B0F0E12FF0E0D8
:1008B000ABE0B0E0AC0FBD1FAE0FBF1F8C91EE0DD3
:1008C000FF1D3197808390E00E94820588E091E0CF
:1008D0000E94B0051F5FE7CF86E492E00E94B0055A
:1008E00081E001C080E0A1960FB6F894DEBF0FBE94
:1008F000CDBFDF91CF911F910F91FF90EF900895A1
:10090000813031F487B3806B87BB81E58DB901C03D
:10091000BE9A45E050E060E070E086E00C94720022
:100920001F93CF93DF93182FEB0186E00E94D30033
:100930001FB9779B11C08FB1888386E00E94C500E4
:10094000C82F86E00E94E40086E00E94EC0081E06F
:10095000CC2341F080E006C086E00E94C5008823D9
:1009600041F3E9CFDF91CF911F91089585B587605D
:1009700085BD89E784BD89B7806489BF88B78064F5
:1009800088BF78940895909381038093800308959D
:100990001F920F920FB60F9211242F933F934F93F4
:1009A0005F936F937F938F939F93AF93BF93EF93D7
:1009B000FF93E0918003F0918103309709F009954E
:1009C00089E784BD88B7806488BFFF91EF91BF91AC
:1009D000AF919F918F917F916F915F914F913F91D7
:1009E0002F910F900FBE0F901F901895CF92DF920E
:1009F000EF92FF92CF93DF93EC0110928503109258
:100A0000840310928303109282031AB810BC2881C9
:100A100039814A815B8184E0220F331F441F551FB7
:100A20008A95D1F760E072E18AE790E00E94540A6B
:100A30002150310941095109C32ED42EE52EFF243E
:100A4000C0BC29B98F81882311F0579A7894888582
:100A5000882311F0569A789489858111549A8A8551
:100A60008111539A20B58E8130E1839FC0011124FA
:100A7000282B20BD20B58D8138E0839FC001112433
:100A8000282B20BD8C81893011F4529A0CC08530FE
:100A900069F0863019F480B5826807C0873019F490
:100AA00080B5846802C080B5866880BD45E050E0AE
:100AB00060E070E085E0DF91CF91FF90EF90DF90F4
:100AC000CF900C947200CF93C82F85E00E94D30082
:100AD0005D9B0AC085E00E94E40085E00E94EC0076
:100AE0005D9908C080E008C085E00E94C5008823A9
:100AF00079F3F0CFCCB981E0CF9108955D9BFECF23
:100B00008CB90895FF920F931F93CF93DF9300D07A
:100B100000D000D0CDB7DEB78E010F5F1F4F26E0AB
:100B2000F80111922A95E9F74AE050E0B8010E94D5
:100B30009E0AF12CF801EF0DF11D8081882321F030
:100B40000E947E05F394F6CF26960FB6F894DEBF8A
:100B50000FBECDBFDF91CF911F910F91FF900895F0
:100B60001F93CF93DF93EC0110E0FE01E10FF11D25
:100B70008081882321F00E947E051F5FF6CFDF91E0
:100B8000CF911F9108951F920F920FB60F921124CB
:100B90002F933F934F935F936F937F938F939F9385
:100BA000EF93FF937CB16BB1687180918403909156
:100BB00085030196992740918203509183039C01FC
:100BC00020583F4F33272417350711F4109287041C
:100BD00020918203309183038217930729F481E0E7
:100BE000809388046FEF08C09093850380938403FB
:100BF000FC01E957FC4F708360938603FF91EF91EE
:100C00009F918F917F916F915F914F913F912F9124
:100C10000F900FBE0F901F901895CF93DF931F92E8
:100C2000CDB7DEB71982C49860E070E08F710E9482
:100C30009004BE016F5F7F4F8FEF0E949004C49AB3
:100C400089810F90DF91CF910895CF93C62FC498DB
:100C50008F7160E070E080620E94900460E070E05C
:100C60008C2F0E949004C49ACF910895EF92FF9226
:100C70000F931F93CF93DF93162FF72E042FC49853
:100C80008F7160E070E080620E949004E12EC12FBD
:100C9000DF2D8C2F8E19801730F460E070E0899181
:100CA0000E949004F6CFC49ADF91CF911F910F91CB
:100CB000FF90EF90089520E030E00496FB01E20FF2
:100CC000F31FDC01A21BB30B4C9140832F5F3F4FFE
:100CD0002530310599F70895CF93DF9300D000D0E8
:100CE0001F92CDB7DEB7282FCB01211113C025E00D
:100CF000FB01AEE7B0E001900D922A95E1F7BE014D
:100D00006F5F7F4F0E945B0645E0BE016F5F7F4FC4
:100D10008AE014C02130A9F425E0FB01A9E7B0E086
:100D200001900D922A95E1F7BE016F5F7F4F0E94FF
:100D30005B0645E0BE016F5F7F4F8BE00E94360689
:100D400038C0223061F425E0FB01A4E7B0E0019057
:100D50000D922A95E1F7FB0164818CE028C02330D5
:100D600061F425E0FB01AFE6B0E001900D922A9519
:100D7000E1F7FB0164818DE01AC0243061F425E0C5
:100D8000FB01AAE6B0E001900D922A95E1F7FB0184
:100D900064818EE00CC0253061F4FB01A5E6B0E073
:100DA00001900D922A95E1F7FB0164818FE00E948A
:100DB00025060F900F900F900F900F90DF91CF911D
:100DC0000895CF93DF9300D000D01F92CDB7DEB748
:100DD00025E0FC01A0E6B0E001900D922A95E1F734
:100DE000BE016F5F7F4F0E945B0645E0BE016F5FF3
:100DF0007F4F8AE00E94360645E0BE016F5F7F4F5D
:100E000080E10E9436060F900F900F900F900F9088
:100E1000DF91CF910895C49860E070E082EE0E9467
:100E20009004C49A0895C49860E070E081EE0E9436
:100E30009004C49A08956EE770E080E00E946C060A
:100E400080E00E940D06682F616080E00E94250608
:100E500080E00E940D06682F626080E00E942506F7
:100E600060E787E00E9425060E940B070E94130797
:100E7000C39A8BE291E00197F1F700C0000008955A
:100E8000C39880E00E940D06682F6E7F80E00E946C
:100E9000250680E00E940D06682F626080E00E94B7
:100EA000250660E787E00E9425060E9413078BE273
:100EB00091E00197F1F700C000000895CF93DF9310
:100EC0001F92CDB7DEB71982C498BE016F5F7F4F06
:100ED0008FEF0E949004C49A89810F90DF91CF9187
:100EE0000895EF92FF920F931F93CF93DF93CDB7A7
:100EF000DEB7C456D1090FB6F894DEBF0FBECDBF22
:100F00007C0186EF91E0F70109950E945E071F9230
:100F10008F938DEF91E09F938F938E010F5F1F4F03
:100F20001F930F930E94BF0AC801F701099580E043
:100F30000E940D061F928F938CE092E09F938F93F7
:100F40001F930F930E94BF0AC801F701099585E01E
:100F50000E940D061F928F938BE192E09F938F93D7
:100F60001F930F930E94BF0AC801F701099586E0FD
:100F70000E940D061F928F9389E292E09F938F93B8
:100F80001F930F930E94BF0AC801F701099581E0E2
:100F90000E940D061F928F938AE392E09F938F9396
:100FA0001F930F930E94BF0AC801F701099582E0C1
:100FB0000E940D061F928F9388E492E09F938F9377
:100FC0001F930F930E94BF0A0FB6F894DEBF0FBEA7
:100FD000CDBFC801F701099585E492E0F7010995B5
:100FE000CC59DF4F0FB6F894DEBF0FBECDBFDF91F7
:100FF000CF911F910F91FF90EF900895CF93DF93C2
:10100000EC010E945E07982F807496FF05C0209720
:1010100019F0969597709883DF91CF910895CF92AC
:10102000DF92FF920F931F93CF93DF931F92CDB761
:10103000DEB7182F062FC49860E070E081E6998330
:101040000E949004F12EC12E9981D92E8C2D8F19DA
:10105000801740F4B6018FEF0E9490048FEFC81AFA
:10106000D80AF4CFC49A60E487E00E9425060E9463
:101070005E0785FF04C060E287E00E9425060E94AB
:101080005E0786FB882780F90F90DF91CF911F9133
:101090000F91FF90DF90CF900895CF92DF92FF9253
:1010A0000F931F93CF93DF931F92CDB7DEB7182F07
:1010B000062F87E099830E94D3000E944007C498BE
:1010C00060E070E080EA0E949004F12EC12E9981C8
:1010D000D92E8C2D8F19801740F460E070E0F60156
:1010E00081916F010E949004F4CFC49AC39A8BE25D
:1010F00091E00197F1F700C00000C3989AE19A953A
:10110000F1F700C00E945E07807351F00E945E07F5
:101110008F3F61F48AE592E00E94B00514E026C09A
:1011200087E00E946A00882349F3F0CF87E00E949D
:101130006A00813031F48DE692E00E94B00512E041
:1011400015C00E945E0785FF06C080E892E00E94FD
:10115000B00511E00BC00E945E0784FF06C083E962
:1011600092E00E94B00513E001C010E087E00E9409
:10117000E40087E00E94EC006091830085E00E941B
:101180002506812F0F90DF91CF911F910F91FF9036
:10119000DF90CF900895CF9386E00E940D06C82F70
:1011A000C6606C2F86E00E9425068C2FCF91089593
:1011B000CF9386E00E940D06C82FC77D6C2F86E076
:1011C0000E9425068C2FCF910895CF9380E00E9436
:1011D0000D06C82FCC606C2F80E00E9425068C2F56
:1011E000CF910895CF93DF93D82FBC9ABB9A81E01B
:1011F0000E948004C398C49A8FE097E20197F1F7A8
:1012000000C000000E94CB080E94D808C82F86E0CA
:101210000E940D068C1759F086EA92E00E94B005F4
:1012200086E00E940D060E947E05C4E001C0C0E079
:101230000E94E5086FEF84E00E94250684E00E948A
:101240000D068F3F51F086EB92E00E94B00584E0DE
:101250000E940D060E947E05C5E06D2F85E00E946C
:10126000250685E00E940D068D1751F08BEC92E06B
:101270000E94B00585E00E940D060E947E05C1E037
:1012800060E082E00E94250682E00E940D06682F41
:10129000616082E00E94250682E00E940D06682FB0
:1012A000646082E00E94250681E00E940D06682F9E
:1012B000616081E00E94250681E00E940D06682F92
:1012C000626081E00E94250681E00E940D06682F81
:1012D000646081E00E94250681E00E940D06682F6F
:1012E000686081E00E94250681E00E940D06682F5B
:1012F000606181E00E94250681E00E940D06682F52
:10130000606281E00E94250666E08DE10E9425066C
:101310006FE38CE10E9425066EE770E080E00E949A
:101320006C0669E770E081E00E946C0664E770E09B
:1013300082E00E946C066FE670E083E00E946C061B
:101340006AE670E084E00E946C0665E670E085E085
:101350000E946C068C2FDF91CF910895CF93DF937D
:10136000CDB7DEB7E8970FB6F894DEBF0FBECDBF9E
:1013700018AE8CE08E010F5D1F4FF801282F1192DF
:101380002A95E9F78FABCE0101967C0180E2F70147
:1013900011928A95E9F70E945A0084E890E00E9431
:1013A000F604809183000E94F20885E0EFE8F0E007
:1013B000DE01D29601900D928A95E1F763E675E021
:1013C00080EB95E00E94710747E050E060E070E03C
:1013D00087E00E947200F80180E08F5F81938C307B
:1013E000E1F781EE92E00E94B0054AE050E0BE01D4
:1013F000635D7F4F82E090E00E949E0ACE018D9651
:101400000E94B00586E492E00E94B0058CE5C82EEB
:1014100099E3B92ECE01C2960E94E1060E94AB026A
:10142000813039F5D12CD3948D2D0E949C03FCE0A2
:10143000DF12F9CF0E94DA028130D9F40E941B0733
:10144000CE01C8960E94FE07882379F088EF92E0CB
:101450000E94B00560E2C7010E940F08AE01495C1E
:101460005F4FB801C7010E94210488AD882341F372
:1014700018AE2FEF81E19AE7215080409040E1F7CC
:1014800000C00000809183008C3519F4B092830075
:1014900004C0893311F4C0928300809183000E94BC
:1014A000F2080E944007B6CFA1E21A2EAA1BBB1B6E
:1014B000FD010DC0AA1FBB1FEE1FFF1FA217B30720
:1014C000E407F50720F0A21BB30BE40BF50B661F36
:1014D000771F881F991F1A9469F7609570958095FA
:1014E00090959B01AC01BD01CF010895AA1BBB1BC8
:1014F00051E107C0AA1FBB1FA617B70710F0A61B14
:10150000B70B881F991F5A95A9F780959095BC0134
:10151000CD010895FB01DC0104C08D91019080197B
:1015200021F441505040C8F7881B990B0895DC0105
:1015300001C06D9341505040E0F70895FB019F01B9
:10154000E8944230C4F04532B4F44A3029F497FBB1
:101550001EF4909581959F4F642F77270E94760AFD
:10156000805D8A330CF0895D8193CB010097A1F7F0
:1015700016F45DE251931082C9010C94C90CAEE0DF
:10158000B0E0E5ECFAE00C94770D0D891E8986E059
:101590008C831A8309838FEF9FE79E838D83AE012F
:1015A000475E5F4F6F89788DCE0101960E94E10AF8
:1015B000EF81F885E00FF11F10822E96E4E00C9485
:1015C000930DACE0B0E0E7EEFAE00C94690D7C011D
:1015D0006B018A01FC0117821682838181FFBDC1E4
:1015E000CE0101964C01F7019381F60193FD85919F
:1015F00093FF81916F01882309F4ABC1853239F4DF
:1016000093FD859193FF81916F01853229F4B70194
:1016100090E00E94D90CE7CF512C312C20E02032F1
:10162000A0F48B3269F030F4803259F0833269F4DF
:1016300020612CC08D3239F0803339F4216026C00E
:101640002260246023C0286021C027FD27C030ED20
:10165000380F3A3078F426FF06C0FAE05F9E300D6E
:101660001124532E13C08AE0389E300D1124332EDE
:1016700020620CC08E3221F426FD6BC1206406C0AE
:101680008C3611F4206802C0883641F4F60193FDCF
:10169000859193FF81916F018111C1CF982F9F7D1B
:1016A0009554933028F40C5F1F4FFFE3F9830DC06E
:1016B000833631F0833771F0833509F05BC022C087
:1016C000F801808189830E5F1F4F44244394512C7D
:1016D000540115C03801F2E06F0E711CF801A080B2
:1016E000B18026FF03C0652D70E002C06FEF7FEF71
:1016F000C5012C870E94BE0C2C0183012C852F77FD
:10170000222E17C03801F2E06F0E711CF801A08084
:10171000B18026FF03C0652D70E002C06FEF7FEF40
:10172000C5012C870E94B30C2C012C852068222E29
:10173000830123FC1BC0832D90E048165906B0F4AA
:10174000B70180E290E00E94D90C3A94F4CFF50101
:1017500027FC859127FE81915F01B70190E00E94EF
:10176000D90C31103A94F1E04F1A51084114510448
:1017700071F7E5C0843611F0893639F5F80127FF95
:1017800007C060817181828193810C5F1F4F08C007
:1017900060817181882777FD8095982F0E5F1F4F9C
:1017A0002F76B22E97FF09C0909580957095619520
:1017B0007F4F8F4F9F4F2068B22E2AE030E0A40168
:1017C0000E940B0DA82EA81844C0853729F42F7E3F
:1017D000B22E2AE030E025C0F22FF97FBF2E8F36DF
:1017E000C1F018F4883579F0B4C0803719F0883723
:1017F00021F0AFC02F2F2061B22EB4FE0DC08B2D73
:101800008460B82E09C024FF0AC09F2F9660B92EAD
:1018100006C028E030E005C020E130E002C020E151
:1018200032E0F801B7FE07C0608171818281938147
:101830000C5F1F4F06C06081718180E090E00E5FF9
:101840001F4FA4010E940B0DA82EA818FB2DFF7797
:10185000BF2EB6FE0BC02B2D2E7FA51450F4B4FE68
:101860000AC0B2FC08C02B2D2E7E05C07A2C2B2D71
:1018700003C07A2C01C0752C24FF0DC0FE01EA0DB7
:10188000F11D8081803311F4297E09C022FF06C03A
:101890007394739404C0822F867809F0739423FDA7
:1018A00013C020FF06C05A2C731418F4530C571899
:1018B000732C731468F4B70180E290E02C870E94C7
:1018C000D90C73942C85F5CF731410F4371801C01C
:1018D000312C24FF12C0B70180E390E02C870E94D6
:1018E000D90C2C8522FF17C021FF03C088E590E0AA
:1018F00002C088E790E0B7010CC0822F867859F0CB
:1019000021FD02C080E201C08BE227FD8DE2B7011C
:1019100090E00E94D90CA51438F4B70180E390E060
:101920000E94D90C5A94F7CFAA94F401EA0DF11D44
:101930008081B70190E00E94D90CA110F5CF33202F
:1019400009F451CEB70180E290E00E94D90C3A949C
:10195000F6CFF7018681978102C08FEF9FEF2C961B
:10196000E2E10C94850DFC0105906150704001107E
:10197000D8F7809590958E0F9F1F0895FC016150B8
:10198000704001900110D8F7809590958E0F9F1FA1
:101990000895DC01FC01672F71917723E1F73297FD
:1019A00004C07C916D9370836291AE17BF07C8F33A
:1019B00008950F931F93CF93DF93182F092FEB01F7
:1019C0008B8181FD03C08FEF9FEF20C082FF10C08D
:1019D0004E815F812C813D81421753077CF4E88161
:1019E000F9819F012F5F3F4F39832883108306C001
:1019F000E885F985812F0995892B29F72E813F816B
:101A00002F5F3F4F3F832E83812F902FDF91CF9108
:101A10001F910F910895FA01AA27283051F1203122
:101A200081F1E8946F936E7F6E5F7F4F8F4F9F4F72
:101A3000AF4FB1E03ED0B4E03CD0670F781F891FB4
:101A40009A1FA11D680F791F8A1F911DA11D6A0F82
:101A5000711D811D911DA11D20D009F468943F9135
:101A60002AE0269F11243019305D3193DEF6CF0134
:101A70000895462F4770405D4193B3E00FD0C9F7FA
:101A8000F6CF462F4F70405D4A3318F0495D31FD67
:101A90004052419302D0A9F7EACFB4E0A6959795BA
:101AA000879577956795BA95C9F700976105710590
:101AB00008959B01AC010A2E0694579547953795DA
:101AC0002795BA95C9F7620F731F841F951FA01D34
:101AD00008952F923F924F925F926F927F928F92D2
:101AE0009F92AF92BF92CF92DF92EF92FF920F93AD
:101AF0001F93CF93DF93CDB7DEB7CA1BDB0B0FB6B7
:101B0000F894DEBF0FBECDBF09942A883988488873
:101B10005F846E847D848C849B84AA84B984C88409
:101B2000DF80EE80FD800C811B81AA81B981CE0F00
:101B3000D11D0FB6F894DEBF0FBECDBFED010895E5
:041B4000F894FFCF47
:101B4400E8E8F0F0E2C1C2C2C2E5C1C2C2C2D4C177
:101B5400C2C2C2C3C1C2C2C2B2C1C2C2C2A1E8E847
:101B6400F0F0E25C8025000008000000000101C1E3
:101B7400C2C2C2B220736F757263655F72657065AD
:101B84006174657220000001020304000102030471
:101B940073756363657320706572206D6F6E74680E
:101BA400203D2000202020006661696C2070657251
:101BB400206D6F6E7468203D20004E4F2045727278
:101BC4006F72206465746563746564200A0045520D
:101BD400524F52205265706F7274696E67200020F4
:101BE4006D6F6E7468732000202C00526563656904
:101BF4007665642073746172742070726F677261A9
:101C04006D6D696E6720636F6D6D616E640A00723D
:101C14006563656976656420737461727420626CAF
:101C24006F636B20666F72206D6F6E746820007234
:101C34006563656976656420656E6420626C6F63B4
:101C44006B0A0072656365697665642000206461CF
:101C5400790A00726563656976656420626C6F63F6
:101C64006B20636F72726563740A007265636569E1
:101C740076656420626C6F636B204552524F520A42
:101C840000726563656976656420656E64207072B0
:101C94006F6772616D6D696E67206D6F64650A00B0
:101CA4004E6F206572726F7220696E2070726F675A
:101CB40072616D6D696E670A004552524F52206918
:101CC4006E20426C6F636B2000001F1D1F1E1F1EC1
:101CD4001F1F1E1F1E1F696E666F0D0A005354419D
:101CE4005455533A20253032580D0A00434F4E467E
:101CF40049473A20253032580D0A0052465F43487E
:101D04003A20253032580D0A0052465F5345545547
:101D1400503A20253032580D0A00454E5F41413A71
:101D240020253032580D0A00454E5F525841444434
:101D3400523A20253032580D0A005246204E4F5454
:101D440020436F6E6E6563746564200A0077616971
:101D5400742041434B2054696D65204F75740A000B
:101D640073656E6420646174652073756363657361
:101D7400730A006D6178206175746F207472616EEE
:101D8400736D69740A002073657475705F666169A8
:101D94006C6564200A0073657420726574726965E9
:101DA400735F6661696C6564200A00207365742042
:101DB4006368616E6E656C5F6661696C6564200A58
:101DC400000A73656E64696E672064617461206FD4
:101DD4006E2C20706970650050726F6772616D6D52
:101DE400696E67207265706F7274206672616D65CA
:0C1DF400207265636569766564200A0052
:00000001FF
