:100000000C942A000C9447000C9447000C94470071
:100010000C9447000C94E8040C9447000C9447009F
:100020000C9447000C9447000C9447000C94470034
:100030000C94F7000C94E3050C9447000C944700D3
:100040000C9447000C9447000C9447000C94470014
:100050000C94470011241FBECFE5D8E0DEBFCDBF12
:1000600012E0A0E6B0E0E6E8FBE102C005900D92E8
:10007000A034B107D9F713E0A0E4B2E001C01D92AB
:10008000AC3FB107E1F70E94DD090C94C10D0C945F
:1000900000009AE0899FF0011124E05CFD4F14827A
:1000A00015821682178210821182128213821086A4
:1000B00011860895CF930E94D60483EC90E00E94AD
:1000C000E304C0E08C2F0E944900CF5FCA30D1F713
:1000D000CF9108959AE0899FF0011124E05CFD4FD3
:1000E000808508950F931F939AE0899FF001112452
:1000F000E05CFD4F0081118122813381012B022BB5
:10010000032B51F4408351836283738314821582DD
:1001100016821782108611861F910F910895CF9332
:10012000DF9320E030E0DAE0D29FF001D39FF00DC2
:100130001124E05CFD4FC185C130E9F484819581D3
:10014000A681B7810196A11DB11D84839583A683E5
:10015000B783448155816681778180819181A281B5
:10016000B381481759076A077B0729F4148215825F
:1001700016821782C0872F5F3F4F2A303105A1F6C4
:10018000DF91CF9108950C948F009AE0899FF00140
:100190001124E05CFD4F8085882319F0108681E0F2
:1001A000089580E008959AE0899FF0011124E05CB1
:1001B000FD4F4081518162817381452B462B472B36
:1001C00011F081E0818708959AE0899FF001112460
:1001D000E05CFD4F118608959AE0899FF00111249B
:1001E000E05CFD4F148215821682178208951F92DB
:1001F0000F920FB60F9211242F933F934F938F932B
:100200009F93EF93FF934FB18091B10390E02091C2
:10021000B2033091B3032817390731F1E091B503E8
:10022000F091B60340838091B5039091B603019697
:100230009093B6038093B5032091AF033091B00340
:100240008217930741F48091AD039091AE03909390
:10025000B6038093B5038091B2039091B3030196E6
:100260009093B3038093B203FF91EF919F918F918D
:100270004F913F912F910F900FBE0F901F901895A7
:100280000F931F93CF93DF93C62FFB0190E060E0A5
:10029000D5E02E2F2C1B2817F8F4B19128E030E080
:1002A00070E8192F111F1127111F990FA62FAA1FD0
:1002B000AA27AA1F9A2B660FA1E0072F0B2309F488
:1002C000A0E0A11711F06D279058769521503109C3
:1002D0002115310531F7DDCFFA0190836183DF917C
:1002E000CF911F910F910895811102C080E007C046
:1002F000813021F08230D1F783E001C081E06330AA
:1003000059F0643011F484600895653011F4886008
:100310000895663009F48C6008950F931F93CF936E
:10032000DF9300D0CDB7DEB78C011A82198280E24C
:10033000ECEDF3E0DF011D928A95E9F78091B903B6
:100340009091BA0301969093BA038093B9032FEE6C
:100350002093DC03F80120812093DD032181209389
:10036000DE038093DF039093E003E381E53028F41C
:10037000F0E0E455FF4F808101C081E08093E1030C
:10038000D80112966C9181E00E9474018093E2037F
:10039000F80184818093E30385818093E40320E066
:1003A000D80115968C91281760F4822F90E0F801FF
:1003B000E80FF91F3681FC01EB51FC4F30832F5FB2
:1003C000EFCFAE014F5F5F4F6CED73E08CE10E94A9
:1003D000400189818093F9038A818093FA038EEF2B
:1003E0008093FB038091B9039091BA03019621F4A5
:1003F0001092BA031092B9030F900F90DF91CF9132
:100400001F910F910895CF93DF93C82FD82FD270EB
:1004100081FF04C085E990E00E94D005C0FF02C0C2
:1004200081E0D11180E0DF91CF910895DF92EF92CA
:10043000FF920F931F93CF93DF9300D000D0CDB7DF
:10044000DEB78C017B011C821B82DC018C918F3E0C
:1004500009F06CC05F968C915F978E3F09F069C080
:100460005D968C915D9789835E968C918A83AE01AF
:100470004D5F5F4FB8018CE10E94400142E050E0C7
:10048000BE016D5F7F4FCE0101960E94AB0A892BA2
:1004900009F052C0F801448150E0542F4427838171
:1004A000480F511D399620E030E08191D701A20F0D
:1004B000B31F1A968C932F5F3F4F24313105A9F754
:1004C000D80117968C911797F70187838C918083B9
:1004D00011968C911197818312968C911297828339
:1004E000548343831596EC91E53028F4F0E0E95508
:1004F000FF4F808101C085E0D70115968C93F801EC
:1005000086810E940302D70116968C931697F801F4
:10051000808519968C931997258D30E05F963C93D2
:100520002E935E97878D90968C9308C092E0D92E7B
:1005300005C083E0D82E02C0DD24D3948D2D0F900A
:100540000F900F900F90DF91CF911F910F91FF901F
:10055000EF90DF900895CF93DF93CDB7DEB76A9722
:100560000FB6F894DEBF0FBECDBF8AEA898382EC56
:100570008A831C8283E08B831D8284E18E83FE014B
:100580003796CE014B9621E42193E817F907E1F75E
:10059000CE0101960E948D0160E28CED93E00E94F5
:1005A00076086A960FB6F894DEBF0FBECDBFDF9116
:1005B000CF910895CF93DF93CDB7DEB76A970FB68B
:1005C000F894DEBF0FBECDBF8AEA898382EC8A83AE
:1005D0001C8283E08B8384E18E8391E09D83FE0106
:1005E0003796DF011D928A95E9F7CE014B9623E0FD
:1005F0002193E817F907E1F7CE0101960E948D01DA
:1006000060E28CED93E00E9476086A960FB6F8944B
:10061000DEBF0FBECDBFDF91CF910895CF93DF93A3
:10062000CDB7DEB76A970FB6F894DEBF0FBECDBF69
:100630009AEA998392EC9A831C8293E09B8394E1DB
:100640009E8322E02D83FE013796DF011D929A954D
:10065000E9F78F83CE0101960E948D0160E28CED57
:1006600093E00E9476086A960FB6F894DEBF0FBE3C
:10067000CDBFDF91CF910895CF93DF93CDB7DEB794
:100680006A970FB6F894DEBF0FBECDBF9AEA998382
:1006900092EC9A831C8293E09B8394E19E8324E0F6
:1006A0002D83FE013796DF011D929A95E9F78F831E
:1006B000CE0101960E948D0160E28CED93E00E94D4
:1006C00076086A960FB6F894DEBF0FBECDBFDF91F5
:1006D000CF910895CF93DF93CDB7DEB76A970FB66A
:1006E000F894DEBF0FBECDBF2AEA298322EC2A830D
:1006F0001C8223E02B8334E13E832D83FE01379659
:100700009E01255E3F4FDC014D91CD014193E217E3
:10071000F307C9F7CE0101960E948D0160E28CEDCE
:1007200093E00E9476086A960FB6F894DEBF0FBE7B
:10073000CDBFDF91CF910895CF92DF92EF92FF92DC
:100740000F931F93CF93DF93CDB7DEB764970FB6A8
:10075000F894DEBF0FBECDBF082F44E150E067E044
:1007600070E0CE0101960E94B80A2FEF80E792E078
:10077000215080409040E1F700C00000802F0E948F
:100780000E03182F2FEF80E792E021508040904019
:10079000E1F700C00000113009F043C0E12CF12C5A
:1007A000D12CE02FF0E0E45FFE4FC080DC14A8F411
:1007B000CE0101960E946A03182F2FEF80E792E086
:1007C000215080409040E1F700C00000113011F44A
:1007D000E39401C0F394D394E9CF802F0E943C03AB
:1007E0002FEF80E792E0215080409040E1F700C079
:1007F000000081EB90E00E94D0058E2D90E00E94D9
:10080000A20585EC90E00E94D00589EC90E00E9462
:10081000D0058F2D90E00E94A20589E691E00E940C
:10082000D005812F64960FB6F894DEBF0FBECDBF02
:10083000DF91CF911F910F91FF90EF90DF90CF90BC
:100840000895EF92FF920F931F93CF93DF93CDB74D
:10085000DEB7A1970FB6F894DEBF0FBECDBF7B0108
:100860008A01BE016F5F7F4F0E941602F80110825D
:1008700088858530B9F58B85811105C08BED90E0B9
:100880000E94D0052FC0F80180838FEE90E00E9477
:10089000D005F801808190E00E94A20580E091E0FF
:1008A0000E94D00511E08B858117B0F0E12FF0E0B8
:1008B000ABE0B0E0AC0FBD1FAE0FBF1F8C91EE0DD3
:1008C000FF1D3197808390E00E94A20589E091E0AE
:1008D0000E94D0051F5FE7CF89E691E00E94D00516
:1008E00081E001C080E0A1960FB6F894DEBF0FBE94
:1008F000CDBFDF91CF911F910F91FF90EF900895A1
:1009000060E086E40E94890486B1876086B9379AE0
:100910000895843481F028F4823449F0833449F016
:100920000DC0833631F0843631F0823639F467BB3E
:1009300003C064BB01C061BB81E008958FEF0895DF
:10094000813031F487B3806B87BB81E58DB901C0FD
:10095000BE9A45E050E060E070E086E00C947200E2
:100960001F93CF93DF93182FEB0186E00E94D300F3
:100970001FB9779B11C08FB1888386E00E94C500A4
:10098000C82F86E00E94E40086E00E94EC0081E02F
:10099000CC2341F080E006C086E00E94C500882399
:1009A00041F3E9CFDF91CF911F91089585B587601D
:1009B00085BD89E784BD89B7806489BF88B78064B5
:1009C00088BF789408959093A5028093A402089517
:1009D0001F920F920FB60F9211242F933F934F93B4
:1009E0005F936F937F938F939F93AF93BF93EF9397
:1009F000FF93E091A402F091A502309709F00995C8
:100A000089E784BD88B7806488BFFF91EF91BF916B
:100A1000AF919F918F917F916F915F914F913F9196
:100A20002F910F900FBE0F901F901895CF92DF92CD
:100A3000EF92FF92CF93DF93EC011092A9021092F4
:100A4000A8021092A7021092A6021AB810BC288120
:100A500039814A815B8184E0220F331F441F551F77
:100A60008A95D1F760E072E18AE790E00E94750A0A
:100A70002150310941095109C32ED42EE52EFF24FE
:100A8000C0BC29B98F81882311F0579A7894888542
:100A9000882311F0569A789489858111549A8A8511
:100AA0008111539A20B58E8130E1839FC0011124BA
:100AB000282B20BD20B58D8138E0839FC0011124F3
:100AC000282B20BD8C81893011F4529A0CC08530BE
:100AD00069F0863019F480B5826807C0873019F450
:100AE00080B5846802C080B5866880BD45E050E06E
:100AF00060E070E085E0DF91CF91FF90EF90DF90B4
:100B0000CF900C947200CF93C82F85E00E94D30041
:100B10005D9B0AC085E00E94E40085E00E94EC0035
:100B20005D9908C080E008C085E00E94C500882368
:100B300079F3F0CFCCB981E0CF9108955D9BFECFE2
:100B40008CB90895FF920F931F93CF93DF9300D03A
:100B500000D000D0CDB7DEB78E010F5F1F4F26E06B
:100B6000F80111922A95E9F74AE050E0B8010E9495
:100B7000BF0AF12CF801EF0DF11D8081882321F0CF
:100B80000E949E05F394F6CF26960FB6F894DEBF2A
:100B90000FBECDBFDF91CF911F910F91FF900895B0
:100BA0001F93CF93DF93EC0110E0FE01E10FF11DE5
:100BB0008081882321F00E949E051F5FF6CFDF9180
:100BC000CF911F9108951F920F920FB60F9211248B
:100BD0002F933F934F935F936F937F938F939F9345
:100BE000EF93FF937CB16BB168718091A8029091F3
:100BF000A902019699274091A6025091A7029C0153
:100C000020583F4F33272417350711F41092AB03B8
:100C10002091A6023091A7028217930729F481E060
:100C20008093AC036FEF08C09093A9028093A80251
:100C3000FC01E555FD4F70836093AA02FF91EF918F
:100C40009F918F917F916F915F914F913F912F91E4
:100C50000F900FBE0F901F9018950C94800444E6DF
:100C600050E060E070E088E00C947200CF93DF9376
:100C70001F92CDB7DEB71982C49860E070E08F7123
:100C80000E94B004BE016F5F7F4F8FEF0E94B004DF
:100C9000C49A89810F90DF91CF910895CF93C62F89
:100CA000C4988F7160E070E080620E94B00460E0E0
:100CB00070E08C2F0E94B004C49ACF910895EF92F7
:100CC000FF920F931F93CF93DF93162FF72E042FCE
:100CD000C4988F7160E070E080620E94B004E12EE1
:100CE000C12FDF2D8C2F8E19801730F460E070E05B
:100CF00089910E94B004F6CFC49ADF91CF911F91E1
:100D00000F91FF90EF90089520E030E00496FB01F2
:100D1000E20FF31FDC01A21BB30B4C9140832F5F4A
:100D20003F4F2530310599F70895CF93DF9300D0D9
:100D300000D01F92CDB7DEB7282FCB01211113C0F1
:100D400025E0FB01AEE7B0E001900D922A95E1F7B6
:100D5000BE016F5F7F4F0E94840645E0BE016F5F5A
:100D60007F4F8AE014C02130A9F425E0FB01A9E7F8
:100D7000B0E001900D922A95E1F7BE016F5F7F4FC1
:100D80000E94840645E0BE016F5F7F4F8BE00E94AA
:100D90005F0638C0223061F425E0FB01A4E7B0E033
:100DA00001900D922A95E1F7FB0164818CE028C047
:100DB000233061F425E0FB01AFE6B0E001900D9235
:100DC0002A95E1F7FB0164818DE01AC0243061F4BB
:100DD00025E0FB01AAE6B0E001900D922A95E1F72B
:100DE000FB0164818EE00CC0253061F4FB01A5E6B7
:100DF000B0E001900D922A95E1F7FB0164818FE04C
:100E00000E944E060F900F900F900F900F90DF9161
:100E1000CF910895CF93DF9300D000D01F92CDB72C
:100E2000DEB725E0FC01A0E6B0E001900D922A9526
:100E3000E1F7BE016F5F7F4F0E94840645E0BE016F
:100E40006F5F7F4F8AE00E945F0645E0BE016F5FE3
:100E50007F4F80E10E945F060F900F900F900F90E0
:100E60000F90DF91CF910895C49860E070E082EE1A
:100E70000E94B004C49A0895C49860E070E081EEC6
:100E80000E94B004C49A08956EE770E080E00E946A
:100E9000950680E00E943606682F616080E00E941F
:100EA0004E0680E00E943606682F626080E00E9455
:100EB0004E0660E787E00E944E060E9434070E94BB
:100EC0003C07C39A8BE291E00197F1F700C0000064
:100ED0000895C39880E00E943606682F6E7F80E0F8
:100EE0000E944E0680E00E943606682F626080E015
:100EF0000E944E0660E787E00E944E060E943C0773
:100F00008BE291E00197F1F700C000000895CF93C4
:100F1000DF931F92CDB7DEB71982C498BE016F5F11
:100F20007F4F8FEF0E94B004C49A89810F90DF91A8
:100F3000CF910895EF92FF920F931F93CF93DF937A
:100F4000CDB7DEB7C456D1090FB6F894DEBF0FBED9
:100F5000CDBF7C0189E191E0F70109950E948707E7
:100F60001F928F9380E291E09F938F938E010F5F8A
:100F70001F4F1F930F930E94E00AC801F7010995C4
:100F800080E00E9436061F928F938FE291E09F933C
:100F90008F931F930F930E94E00AC801F7010995F0
:100FA00085E00E9436061F928F938EE391E09F9317
:100FB0008F931F930F930E94E00AC801F7010995D0
:100FC00086E00E9436061F928F938CE491E09F93F7
:100FD0008F931F930F930E94E00AC801F7010995B0
:100FE00081E00E9436061F928F938DE591E09F93DA
:100FF0008F931F930F930E94E00AC801F701099590
:1010000082E00E9436061F928F938BE691E09F93B9
:101010008F931F930F930E94E00A0FB6F894DEBFE0
:101020000FBECDBFC801F701099588E691E0F70131
:101030000995CC59DF4F0FB6F894DEBF0FBECDBF78
:10104000DF91CF911F910F91FF90EF900895CF9373
:10105000DF93EC010E948707982F807496FF05C0EC
:10106000209719F0969597709883DF91CF91089506
:10107000CF92DF92FF920F931F93CF93DF931F9234
:10108000CDB7DEB7182F062FC49860E070E081E678
:1010900099830E94B004F12EC12E9981D92E8C2DF6
:1010A0008F19801740F4B6018FEF0E94B0048FEFC4
:1010B000C81AD80AF4CFC49A60E487E00E944E06AA
:1010C0000E94870785FF04C060E287E00E944E0609
:1010D0000E94870786FB882780F90F90DF91CF91C8
:1010E0001F910F91FF90DF90CF900895CF92DF92E4
:1010F000FF920F931F93CF93DF931F92CDB7DEB76D
:10110000182F062F87E099830E94D3000E94690759
:10111000C49860E070E080EA0E94B004F12EC12E15
:101120009981D92E8C2D8F19801740F460E070E0E2
:10113000F60181916F010E94B004F4CFC49AC39A62
:101140008BE291E00197F1F700C00000C3989AE1AB
:101150009A95F1F700C00E948707807351F00E94B2
:1011600087078F3F61F48DE791E00E94D00514E07E
:1011700026C087E00E946A00882349F3F0CF87E009
:101180000E946A00813031F480E991E00E94D0052C
:1011900012E015C00E94870785FF06C083EA91E030
:1011A0000E94D00511E00BC00E94870784FF06C093
:1011B00086EB91E00E94D00513E001C010E087E0CB
:1011C0000E94E40087E00E94EC006091830085E0CB
:1011D0000E944E06812F0F90DF91CF911F910F91AA
:1011E000FF90DF90CF900895CF9386E00E9436065F
:1011F000C82FC6606C2F86E00E944E068C2FCF91C0
:101200000895CF9386E00E943606C82FC77D6C2FC5
:1012100086E00E944E068C2FCF910895CF9380E0F8
:101220000E943606C82FCC606C2F80E00E944E06CC
:101230008C2FCF910895CF93DF93D82FBC9ABB9A70
:1012400081E00E94A004C398C49A8FE097E20197BE
:10125000F1F700C000000E94F4080E940109C82FA5
:1012600086E00E9436068C1759F089EC91E00E94C6
:10127000D00586E00E9436060E949E05C4E001C0AB
:10128000C0E00E940E096FEF84E00E944E0684E0E9
:101290000E9436068F3F51F089ED91E00E94D00503
:1012A00084E00E9436060E949E05C5E06D2F85E011
:1012B0000E944E0685E00E9436068D1751F08EEE94
:1012C00091E00E94D00585E00E9436060E949E05AE
:1012D000C1E060E082E00E944E0682E00E94360695
:1012E000682F616082E00E944E0682E00E9436060E
:1012F000682F646082E00E944E0681E00E943606FC
:10130000682F616081E00E944E0681E00E943606EF
:10131000682F626081E00E944E0681E00E943606DE
:10132000682F646081E00E944E0681E00E943606CC
:10133000682F686081E00E944E0681E00E943606B8
:10134000682F606181E00E944E0681E00E943606AF
:10135000682F606281E00E944E0666E08DE10E9487
:101360004E066FE38CE10E944E066EE770E080E06F
:101370000E94950669E770E081E00E94950664E7A7
:1013800070E082E00E9495066FE670E083E00E94C4
:1013900095066AE670E084E00E94950665E670E0D6
:1013A00085E00E94950680E690E00E940A070E9470
:1013B00044078C2FDF91CF910895CF93DF93CDB762
:1013C000DEB7E8970FB6F894DEBF0FBECDBF18AEFC
:1013D0007E0121E2E20EF11C8CE0F70111928A9568
:1013E000E9F71FAA8E010F5F1F4F80E2F8011192EB
:1013F0008A95E9F70E945A0085E890E00E94160558
:101400000E942F060E942D06809183000E941B09D6
:1014100085E0E0E9F0E0DE01D29601900D928A9538
:10142000E1F763E875E080ED95E00E949A0747E0F8
:1014300050E060E070E087E00E947200CC24C3942A
:1014400084E092E00E94D0054AE050E0BE01635D76
:101450007F4F82E090E00E94BF0ACE018D960E94ED
:10146000D00589E691E00E94D005CE01C2960E9487
:101470000A070E94AB02813071F58CE0D82E809172
:1014800084000E949C03809184008F5F809384007D
:10149000DA94A9F7C09284000E94DA028130D9F46C
:1014A0000E944407CE01C8960E942708882379F03D
:1014B0008BE192E00E94D00560E2C8010E943808EA
:1014C000AE01495C5F4FB701C8010E94210488AD9D
:1014D000882341F318AEFFEF23E284EFF150204060
:1014E0008040E1F700C00000ABCFA1E21A2EAA1B9A
:1014F000BB1BFD010DC0AA1FBB1FEE1FFF1FA217C4
:10150000B307E407F50720F0A21BB30BE40BF50BC0
:10151000661F771F881F991F1A9469F76095709549
:10152000809590959B01AC01BD01CF010895AA1B48
:10153000BB1B51E107C0AA1FBB1FA617B70710F0BE
:10154000A61BB70B881F991F5A95A9F780959095F0
:10155000BC01CD010895FB01DC0104C08D91019017
:10156000801921F441505040C8F7881B990B089509
:10157000DC0101C06D9341505040E0F70895FB013C
:101580009F01E8944230C4F04532B4F44A3029F463
:1015900097FB1EF4909581959F4F642F77270E94AB
:1015A000970A805D8A330CF0895D8193CB010097A7
:1015B000A1F716F45DE251931082C9010C94EA0C74
:1015C000AEE0B0E0E6EEFAE00C94980D0D891E89CD
:1015D00086E08C831A8309838FEF9FE79E838D8338
:1015E000AE01475E5F4F6F89788DCE0101960E94F4
:1015F000020BEF81F885E00FF11F10822E96E4E0D8
:101600000C94B40DACE0B0E0E8E0FBE00C948A0D83
:101610007C016B018A01FC0117821682838181FFA4
:10162000BDC1CE0101964C01F7019381F60193FDF6
:10163000859193FF81916F01882309F4ABC18532B5
:1016400039F493FD859193FF81916F01853229F4DF
:10165000B70190E00E94FA0CE7CF512C312C20E02A
:101660002032A0F48B3269F030F4803259F08332AA
:1016700069F420612CC08D3239F0803339F4216057
:1016800026C02260246023C0286021C027FD27C017
:1016900030ED380F3A3078F426FF06C0FAE05F9E4E
:1016A000300D1124532E13C08AE0389E300D1124C2
:1016B000332E20620CC08E3221F426FD6BC12064D3
:1016C00006C08C3611F4206802C0883641F4F60159
:1016D00093FD859193FF81916F018111C1CF982F67
:1016E0009F7D9554933028F40C5F1F4FFFE3F983DF
:1016F0000DC0833631F0833771F0833509F05BC05C
:1017000022C0F801808189830E5F1F4F44244394D7
:10171000512C540115C03801F2E06F0E711CF80114
:10172000A080B18026FF03C0652D70E002C06FEF7E
:101730007FEFC5012C870E94DF0C2C0183012C85D3
:101740002F77222E17C03801F2E06F0E711CF801BE
:10175000A080B18026FF03C0652D70E002C06FEF4E
:101760007FEFC5012C870E94D40C2C012C852068AA
:10177000222E830123FC1BC0832D90E048165906BE
:10178000B0F4B70180E290E00E94FA0C3A94F4CFF2
:10179000F50127FC859127FE81915F01B70190E05B
:1017A0000E94FA0C31103A94F1E04F1A510841149A
:1017B000510471F7E5C0843611F0893639F5F80126
:1017C00027FF07C060817181828193810C5F1F4F69
:1017D00008C060817181882777FD8095982F0E5F02
:1017E0001F4F2F76B22E97FF09C090958095709568
:1017F00061957F4F8F4F9F4F2068B22E2AE030E0D7
:10180000A4010E942C0DA82EA81844C0853729F4E5
:101810002F7EB22E2AE030E025C0F22FF97FBF2EB6
:101820008F36C1F018F4883579F0B4C0803719F0DC
:10183000883721F0AFC02F2F2061B22EB4FE0DC02B
:101840008B2D8460B82E09C024FF0AC09F2F96609C
:10185000B92E06C028E030E005C020E130E002C02B
:1018600020E132E0F801B7FE07C06081718182811A
:1018700093810C5F1F4F06C06081718180E090E012
:101880000E5F1F4FA4010E942C0DA82EA818FB2D3F
:10189000FF77BF2EB6FE0BC02B2D2E7FA51450F464
:1018A000B4FE0AC0B2FC08C02B2D2E7E05C07A2CD7
:1018B0002B2D03C07A2C01C0752C24FF0DC0FE0116
:1018C000EA0DF11D8081803311F4297E09C022FFC9
:1018D00006C07394739404C0822F867809F07394C1
:1018E00023FD13C020FF06C05A2C731418F4530CA8
:1018F0005718732C731468F4B70180E290E02C87BA
:101900000E94FA0C73942C85F5CF731410F43718D9
:1019100001C0312C24FF12C0B70180E390E02C8776
:101920000E94FA0C2C8522FF17C021FF03C088E516
:1019300090E002C088E790E0B7010CC0822F867863
:1019400059F021FD02C080E201C08BE227FD8DE24B
:10195000B70190E00E94FA0CA51438F4B70180E3B7
:1019600090E00E94FA0C5A94F7CFAA94F401EA0D81
:10197000F11D8081B70190E00E94FA0CA110F5CF13
:10198000332009F451CEB70180E290E00E94FA0CB6
:101990003A94F6CFF7018681978102C08FEF9FEFCF
:1019A0002C96E2E10C94A60DFC010590615070406C
:1019B0000110D8F7809590958E0F9F1F0895FC0118
:1019C0006150704001900110D8F7809590958E0F6E
:1019D0009F1F0895DC01FC01672F71917723E1F7C8
:1019E000329704C07C916D9370836291AE17BF07EC
:1019F000C8F308950F931F93CF93DF93182F092FE8
:101A0000EB018B8181FD03C08FEF9FEF20C082FF30
:101A100010C04E815F812C813D81421753077CF4B9
:101A2000E881F9819F012F5F3F4F3983288310831D
:101A300006C0E885F985812F0995892B29F72E8124
:101A40003F812F5F3F4F3F832E83812F902FDF9168
:101A5000CF911F910F910895FA01AA27283051F1D3
:101A6000203181F1E8946F936E7F6E5F7F4F8F4FCF
:101A70009F4FAF4FB1E03ED0B4E03CD0670F781F2E
:101A8000891F9A1FA11D680F791F8A1F911DA11D13
:101A90006A0F711D811D911DA11D20D009F468944C
:101AA0003F912AE0269F11243019305D3193DEF6F4
:101AB000CF010895462F4770405D4193B3E00FD0AA
:101AC000C9F7F6CF462F4F70405D4A3318F0495D95
:101AD00031FD4052419302D0A9F7EACFB4E0A69578
:101AE0009795879577956795BA95C9F7009761059A
:101AF000710508959B01AC010A2E069457954795F0
:101B000037952795BA95C9F7620F731F841F951FE4
:101B1000A01D08952F923F924F925F926F927F92F5
:101B20008F929F92AF92BF92CF92DF92EF92FF92ED
:101B30000F931F93CF93DF93CDB7DEB7CA1BDB0B99
:101B40000FB6F894DEBF0FBECDBF09942A8839883E
:101B500048885F846E847D848C849B84AA84B98445
:101B6000C884DF80EE80FD800C811B81AA81B98151
:101B7000CE0FD11D0FB6F894DEBF0FBECDBFED0165
:061B80000895F894FFCF68
:101B8600E8E8F0F0E2C1C2C2C2E5C1C2C2C2D4C135
:101B9600C2C2C2C3C1C2C2C2B2C1C2C2C2A1E8E805
:101BA600F0F0E25C01802500000800000000010161
:101BB600C1C2C2C2B220736F757263655F7265700F
:101BC60065617465722000000102030400010203CE
:101BD6000473756363657320706572206D6F6E7430
:101BE60068203D2000202020006661696C20706519
:101BF60072206D6F6E7468203D20004E4F20457236
:101C0600726F72206465746563746564200A0045AA
:101C160052524F52205265706F7274696E6720007F
:101C2600206D6F6E7468732000202C00001F211F2A
:101C3600211F211F1F211F211F696E666F0D0A00BC
:101C46005354415455533A20253032580D0A004317
:101C56004F4E4649473A20253032580D0A00524623
:101C66005F43483A20253032580D0A0052465F53EA
:101C7600455455503A20253032580D0A00454E5FDE
:101C860041413A20253032580D0A00454E5F5258E0
:101C9600414444523A20253032580D0A005246201B
:101CA6004E4F5420436F6E6E6563746564200A0060
:101CB600776169742041434B2054696D65204F75E7
:101CC600740A0073656E64206461746520737563BD
:101CD600636573730A006D6178206175746F207493
:101CE60072616E736D69740A002073657475705F36
:101CF6006661696C6564200A007365742072657498
:101D0600726965735F6661696C6564200A00207399
:101D16006574206368616E6E656C5F6661696C658B
:101D260064200A000A73656E64696E6720646174D4
:101D360061206F6E2C20706970650050726F67723B
:101D4600616D6D696E67207265706F727420667260
:101D5600616D65207265636569766564200A0000B9
:00000001FF
