:100000000C942A000C9447000C9447000C94470071
:100010000C9447000C94DE030C9447000C944700AA
:100020000C9447000C9447000C9447000C94470034
:100030000C94F7000C94D9040C9447000C944700DE
:100040000C9447000C9447000C9447000C94470014
:100050000C94470011241FBECFE5D8E0DEBFCDBF12
:1000600011E0A0E6B0E0E6E5F8E102C005900D92EF
:10007000A43DB107D9F713E0A4EDB1E001C01D9292
:10008000A039B107E1F70E9484080C94290C0C9464
:1000900000009AE0899FF0011124EC52FE4F148277
:1000A00015821682178210821182128213821086A4
:1000B00011860895CF930E94CC0383EC90E00E94B8
:1000C000D903C0E08C2F0E944900CF5FCA30D1F71E
:1000D000CF9108959AE0899FF0011124EC52FE4FD0
:1000E000808508950F931F939AE0899FF001112452
:1000F000EC52FE4F0081118122813381012B022BB2
:10010000032B51F4408351836283738314821582DD
:1001100016821782108611861F910F910895CF9332
:10012000DF9320E030E0DAE0D29FF001D39FF00DC2
:100130001124EC52FE4FC185C130E9F484819581D0
:10014000A681B7810196A11DB11D84839583A683E5
:10015000B783448155816681778180819181A281B5
:10016000B381481759076A077B0729F4148215825F
:1001700016821782C0872F5F3F4F2A303105A1F6C4
:10018000DF91CF9108950C948F009AE0899FF00140
:100190001124EC52FE4F8085882319F0108681E0EF
:1001A000089580E008959AE0899FF0011124EC52AF
:1001B000FE4F4081518162817381452B462B472B35
:1001C00011F081E0818708959AE0899FF001112460
:1001D000EC52FE4F118608959AE0899FF001112498
:1001E000EC52FE4F148215821682178208951F92D8
:1001F0000F920FB60F9211242F933F934F938F932B
:100200009F93EF93FF934FB18091450390E020912E
:100210004603309147032817390731F1E09149032C
:10022000F0914A0340838091490390914A030196DB
:1002300090934A03809349032091430330914403F0
:100240008217930741F48091410390914203909368
:100250004A03809349038091460390914703019696
:100260009093470380934603FF91EF919F918F9165
:100270004F913F912F910F900FBE0F901F901895A7
:100280000F931F93CF93DF93C62FFB0190E060E0A5
:10029000D5E02E2F2C1B2817F8F4B19128E030E080
:1002A00070E8192F111F1127111F990FA62FAA1FD0
:1002B000AA27AA1F9A2B660FA1E0072F0B2309F488
:1002C000A0E0A11711F06D279058769521503109C3
:1002D0002115310531F7DDCFFA0190836183DF917C
:1002E000CF911F910F910895811102C080E007C046
:1002F000813021F08230D1F783E001C081E06330AA
:1003000059F0643011F484600895653011F4886008
:100310000895663009F48C6008950F931F93CF936E
:10032000DF9300D0CDB7DEB78C011A82198280919D
:100330004D0390914E03019690934E0380934D038D
:100340002FEE20937003D8012C9120937103119606
:100350002C911197209372038093730390937403ED
:100360001396EC91E53028F4F0E0EB56FF4F8081D6
:1003700001C081E080937503F801628181E00E94F1
:10038000740180937603D80114968C91149780930E
:10039000770315968C918093780320E0F80185818E
:1003A000281760F4822F90E0F801E80FF91F3681DA
:1003B000FC01E758FC4F30832F5FF0CFAE014F5F59
:1003C0005F4F60E773E08CE10E9440018981809378
:1003D0008D038A8180938E038EEF80938F038091AB
:1003E0004D0390914E03019621F410924E0310920A
:1003F0004D030F900F90DF91CF911F910F910895B2
:10040000CF93DF93CDB7DEB76A970FB6F894DEBF10
:100410000FBECDBF8AEA898382EC8A831C8283E087
:100420008B831D8284E18E83FE013796CE014B962D
:1004300021E42193E817F907E1F7CE0101960E9424
:100440008D0160E280E793E00E941D076A960FB677
:10045000F894DEBF0FBECDBFDF91CF910895CF934B
:10046000DF93CDB7DEB76A970FB6F894DEBF0FBE45
:10047000CDBF8AEA898382EC8A831C8283E08B83E6
:1004800084E18E8391E09D83FE013796DF011D920A
:100490008A95E9F7CE014B9623E02193E817F907F7
:1004A000E1F7CE0101960E948D0160E280E793E0C2
:1004B0000E941D076A960FB6F894DEBF0FBECDBF2F
:1004C000DF91CF910895CF93DF93CDB7DEB76A97D1
:1004D0000FB6F894DEBF0FBECDBF9AEA998392ECB7
:1004E0009A831C8293E09B8394E19E8322E02D8378
:1004F000FE013796DF011D929A95E9F78F83CE01B1
:1005000001960E948D0160E280E793E00E941D0742
:100510006A960FB6F894DEBF0FBECDBFDF91CF91C4
:100520000895CF93DF93CDB7DEB76A970FB6F894EF
:10053000DEBF0FBECDBF9AEA998392EC9A831C82EC
:1005400093E09B8394E19E8324E02D83FE01379604
:10055000DF011D929A95E9F78F83CE0101960E94E3
:100560008D0160E280E793E00E941D076A960FB656
:10057000F894DEBF0FBECDBFDF91CF910895CF932A
:10058000DF93CDB7DEB76A970FB6F894DEBF0FBE24
:10059000CDBF2AEA298322EC2A831C8223E02B8305
:1005A00034E13E832D83FE0137969E01255E3F4F49
:1005B000DC014D91CD014193E217F307C9F7CE015C
:1005C00001960E948D0160E280E793E00E941D0782
:1005D0006A960FB6F894DEBF0FBECDBFDF91CF9104
:1005E0000895CF92DF92EF92FF920F931F93CF93D4
:1005F000DF93CDB7DEB764970FB6F894DEBF0FBEBA
:10060000CDBF082F44E150E067E070E0CE010196D5
:100610000E9420092FEF80E792E021508040904017
:10062000E1F700C00000802F0E946302182F2FEF17
:1006300080E792E0215080409040E1F700C0000048
:10064000113009F043C0E12CF12CD12CE02FF0E067
:10065000EC53FF4FC080DC14A8F4CE0101960E9439
:10066000BF02182F2FEF80E792E02150804090408A
:10067000E1F700C00000113011F4E39401C0F394DD
:10068000D394E9CF802F0E9491022FEF80E792E070
:10069000215080409040E1F700C000008AE990E0DE
:1006A0000E94C6048E2D90E00E9498048EEA90E08D
:1006B0000E94C60482EB90E00E94C6048F2D90E059
:1006C0000E94980481E291E00E94C604812F649602
:1006D0000FB6F894DEBF0FBECDBFDF91CF911F9153
:1006E0000F91FF90EF90DF90CF90089560E086E447
:1006F0000E947F0386B1876086B9379A0895843453
:1007000081F028F4823449F0833449F00DC08336F7
:1007100031F0843631F0823639F467BB03C064BBF4
:1007200001C061BB81E008958FEF0895813031F4FD
:1007300087B3806B87BB81E58DB901C0BE9A45E068
:1007400050E060E070E086E00C9472001F93CF935D
:10075000DF93182FEB0186E00E94D3001FB9779B2F
:1007600011C08FB1888386E00E94C500C82F86E043
:100770000E94E40086E00E94EC0081E0CC2341F07E
:1007800080E006C086E00E94C500882341F3E9CFDF
:10079000DF91CF911F91089585B5876085BD89E769
:1007A00084BD89B7806489BF88B7806488BF789426
:1007B0000895909339028093380208951F920F9202
:1007C0000FB60F9211242F933F934F935F936F9324
:1007D0007F938F939F93AF93BF93EF93FF93E0919A
:1007E0003802F0913902309709F0099589E784BD04
:1007F00088B7806488BFFF91EF91BF91AF919F91BF
:100800008F917F916F915F914F913F912F910F90B9
:100810000FBE0F901F901895CF92DF92EF92FF922C
:10082000CF93DF93EC0110923D0210923C021092A4
:100830003B0210923A021AB810BC288139814A81D1
:100840005B8184E0220F331F441F551F8A95D1F727
:1008500060E072E18AE790E00E94EA0821503109E5
:1008600041095109C32ED42EE52EFF24C0BC29B95D
:100870008F81882311F0579A78948885882311F006
:10088000569A789489858111549A8A858111539A50
:1008900020B58E8130E1839FC0011124282B20BD1B
:1008A00020B58D8138E0839FC0011124282B20BD05
:1008B0008C81893011F4529A0CC0853069F08630F1
:1008C00019F480B5826807C0873019F480B5846850
:1008D00002C080B5866880BD45E050E060E070E011
:1008E00085E0DF91CF91FF90EF90DF90CF900C9457
:1008F0007200CF93C82F85E00E94D3005D9B0AC091
:1009000085E00E94E40085E00E94EC005D9908C04B
:1009100080E008C085E00E94C500882379F3F0CF0D
:10092000CCB981E0CF9108955D9BFECF8CB908953D
:10093000FF920F931F93CF93DF9300D000D000D08E
:10094000CDB7DEB78E010F5F1F4F26E0F801119281
:100950002A95E9F74AE050E0B8010E942709F12CF6
:10096000F801EF0DF11D8081882321F00E9494048D
:10097000F394F6CF26960FB6F894DEBF0FBECDBF28
:10098000DF91CF911F910F91FF9008951F93CF9307
:10099000DF93EC0110E0FE01E10FF11D808188235F
:1009A00021F00E9494041F5FF6CFDF91CF911F9139
:1009B00008951F920F920FB60F9211242F933F9319
:1009C0004F935F936F937F938F939F93EF93FF93D7
:1009D0007CB16BB1687180913C0290913D020196AF
:1009E000992740913A0250913B029C0120583F4F79
:1009F00033272417350711F410923F0320913A0250
:100A000030913B028217930729F481E080934003E1
:100A10006FEF08C090933D0280933C02FC01E15CC3
:100A2000FD4F708360933E02FF91EF919F918F91F4
:100A30007F916F915F914F913F912F910F900FBEDA
:100A40000F901F9018950C94760344E650E060E0F8
:100A500070E088E00C947200CF93DF931F92CDB7C3
:100A6000DEB71982C49860E070E08F710E94A6031F
:100A7000BE016F5F7F4F8FEF0E94A603C49A8981EA
:100A80000F90DF91CF910895CF93C62FC4988F71A7
:100A900060E070E080620E94A60360E070E08C2F4E
:100AA0000E94A603C49ACF910895EF92FF920F93EC
:100AB0001F93CF93DF93162FF72E042FC4988F71B7
:100AC00060E070E080620E94A603E12EC12FDF2D5E
:100AD0008C2F8E19801730F460E070E089910E94AD
:100AE000A603F6CFC49ADF91CF911F910F91FF908B
:100AF000EF90089520E030E00496FB01E20FF31F31
:100B0000DC01A21BB30B4C9140832F5F3F4F25307C
:100B1000310599F70895CF93DF9300D000D01F924D
:100B2000CDB7DEB7282FCB01211113C025E0FB0183
:100B3000AEE7B0E001900D922A95E1F7BE016F5F3C
:100B40007F4F0E947A0545E0BE016F5F7F4F8AE0CC
:100B500014C02130A9F425E0FB01A9E7B0E0019021
:100B60000D922A95E1F7BE016F5F7F4F0E947A05D3
:100B700045E0BE016F5F7F4F8BE00E94550538C096
:100B8000223061F425E0FB01A4E7B0E001900D9272
:100B90002A95E1F7FB0164818CE028C0233061F4E1
:100BA00025E0FB01AFE6B0E001900D922A95E1F758
:100BB000FB0164818DE01AC0243061F425E0FB0163
:100BC000AAE6B0E001900D922A95E1F7FB0164815D
:100BD0008EE00CC0253061F4FB01A5E6B0E0019089
:100BE0000D922A95E1F7FB0164818FE00E94440594
:100BF0000F900F900F900F900F90DF91CF9108956D
:100C0000CF93DF9300D000D01F92CDB7DEB725E0A1
:100C1000FC01A0E6B0E001900D922A95E1F7BE013B
:100C20006F5F7F4F0E947A0545E0BE016F5F7F4F87
:100C30008AE00E94550545E0BE016F5F7F4F80E16D
:100C40000E9455050F900F900F900F900F90DF911D
:100C5000CF910895C49860E070E082EE0E94A603F0
:100C6000C49A0895C49860E070E081EE0E94A603E3
:100C7000C49A08956EE770E080E00E948B0580E0E2
:100C80000E942C05682F616080E00E94440580E08E
:100C90000E942C05682F626080E00E94440560E796
:100CA00087E00E9444050E942A060E943206C39AE9
:100CB0008BE291E00197F1F700C000000895C3981E
:100CC00080E00E942C05682F6E7F80E00E94440522
:100CD00080E00E942C05682F626080E00E9444053D
:100CE00060E787E00E9444050E9432068BE291E0B3
:100CF0000197F1F700C000000895CF93DF931F9292
:100D0000CDB7DEB71982C498BE016F5F7F4F8FEFFA
:100D10000E94A603C49A89810F90DF91CF91089514
:100D2000EF92FF920F931F93CF93DF93CDB7DEB770
:100D3000C456D1090FB6F894DEBF0FBECDBF7C01FB
:100D400081ED90E0F70109950E947D061F928F9337
:100D500088ED90E09F938F938E010F5F1F4F1F933D
:100D60000F930E944809C801F701099580E00E948D
:100D70002C051F928F9387EE90E09F938F931F9384
:100D80000F930E944809C801F701099585E00E9468
:100D90002C051F928F9386EF90E09F938F931F9364
:100DA0000F930E944809C801F701099586E00E9447
:100DB0002C051F928F9384E091E09F938F931F9354
:100DC0000F930E944809C801F701099581E00E942C
:100DD0002C051F928F9385E191E09F938F931F9332
:100DE0000F930E944809C801F701099582E00E940B
:100DF0002C051F928F9383E291E09F938F931F9313
:100E00000F930E9448090FB6F894DEBF0FBECDBF06
:100E1000C801F701099580E291E0F7010995CC59E5
:100E2000DF4F0FB6F894DEBF0FBECDBFDF91CF917D
:100E30001F910F91FF90EF900895CF92DF92FF9254
:100E40000F931F93CF93DF931F92CDB7DEB7182F69
:100E5000062F87E099830E94D3000E945F06C49802
:100E600060E070E080EA0E94A603F12EC12E998115
:100E7000D92E8C2D8F19801740F460E070E0F601B8
:100E800081916F010E94A603F4CFC49AC39A8BE2AA
:100E900091E00197F1F700C00000C3989AE19A959C
:100EA000F1F700C00E947D06807351F00E947D061C
:100EB0008F3F61F485E391E00E94C60414E026C0F0
:100EC00087E00E946A00882349F3F0CF87E00E9400
:100ED0006A00813031F488E491E00E94C60412E097
:100EE00015C00E947D0685FF06C08BE591E00E943B
:100EF000C60411E00BC00E947D0684FF06C08EE68A
:100F000091E00E94C60413E001C010E087E00E9457
:100F1000E40087E00E94EC006091830085E00E947D
:100F20004405812F0F90DF91CF911F910F91FF907A
:100F3000DF90CF900895CF9386E00E942C05C82FB4
:100F4000C6606C2F86E00E9444058C2FCF910895D7
:100F5000CF9386E00E942C05C82FC77D6C2F86E0BA
:100F60000E9444058C2FCF910895CF9380E00E947A
:100F70002C05C82FCC606C2F80E00E9444058C2F7C
:100F8000CF910895CF93DF93D82FBC9ABB9A81E07D
:100F90000E949603C398C49A8FE097E20197F1F7F5
:100FA00000C000000E949B070E94A807C82F86E08F
:100FB0000E942C058C1759F081E891E00E94C6042C
:100FC00086E00E942C050E949404C4E001C0C0E0A9
:100FD0000E94B5076FEF84E00E94440584E00E9400
:100FE0002C058F3F51F081E991E00E94C60484E016
:100FF0000E942C050E949404C5E06D2F85E00E949C
:10100000440585E00E942C058D1751F086EA91E099
:101010000E94C60485E00E942C050E949404C1E051
:1010200060E082E00E94440582E00E942C05682F67
:10103000616082E00E94440582E00E942C05682FD6
:10104000646082E00E94440581E00E942C05682FC4
:10105000616081E00E94440581E00E942C05682FB8
:10106000626081E00E94440581E00E942C05682FA7
:10107000646081E00E94440581E00E942C05682F95
:10108000686081E00E94440581E00E942C05682F81
:10109000606181E00E94440581E00E942C05682F78
:1010A000606281E00E94440566E08DE10E94440593
:1010B0006FE38CE10E9444056EE770E080E00E94DF
:1010C0008B0569E770E081E00E948B0564E770E0C2
:1010D00082E00E948B056FE670E083E00E948B0542
:1010E0006AE670E084E00E948B0565E670E085E0CA
:1010F0000E948B0580E690E00E9400060E943A065E
:101100008C2FDF91CF910895CF93DF93CDB7DEB7CA
:101110002A970FB6F894DEBF0FBECDBF0E945A00CB
:1011200085E890E00E940C040E9425050E9423059A
:10113000809183000E94C20785E0E0E9F0E0DE01D3
:10114000169601900D928A95E1F769E774E086ECB6
:1011500094E00E94900647E050E060E070E087E095
:101160000E94720001E08CEB91E00E94C6044AE00C
:1011700050E0BE016F5F7F4F82E090E00E94270940
:10118000CE0101960E94C60481E291E00E94C6044D
:10119000CE0106960E9400060E940002813081F472
:1011A0001CE0809184000E94F102809184008F5F96
:1011B000809384001150A9F7009384000E942F02AD
:1011C0002FEF83E294EF215080409040E1F700C080
:1011D0000000C9CFA1E21A2EAA1BBB1BFD010DC046
:1011E000AA1FBB1FEE1FFF1FA217B307E407F507D7
:1011F00020F0A21BB30BE40BF50B661F771F881FB3
:10120000991F1A9469F760957095809590959B0148
:10121000AC01BD01CF010895AA1BBB1B51E107C062
:10122000AA1FBB1FA617B70710F0A61BB70B881F76
:10123000991F5A95A9F780959095BC01CD01089505
:10124000DC0101C06D9341505040E0F70895FB016F
:101250009F01E8944230C4F04532B4F44A3029F496
:1012600097FB1EF4909581959F4F642F77270E94DE
:101270000C09805D8A330CF0895D8193CB01009766
:10128000A1F716F45DE251931082C9010C94520B40
:10129000AEE0B0E0EEE4F9E00C94000C0D891E899C
:1012A00086E08C831A8309838FEF9FE79E838D836B
:1012B000AE01475E5F4F6F89788DCE0101960E9427
:1012C0006A09EF81F885E00FF11F10822E96E4E0A5
:1012D0000C941C0CACE0B0E0E0E7F9E00C94F20BED
:1012E0007C016B018A01FC0117821682838181FFD8
:1012F000BDC1CE0101964C01F7019381F60193FD2A
:10130000859193FF81916F01882309F4ABC18532E8
:1013100039F493FD859193FF81916F01853229F412
:10132000B70190E00E94620BE7CF512C312C20E0F6
:101330002032A0F48B3269F030F4803259F08332DD
:1013400069F420612CC08D3239F0803339F421608A
:1013500026C02260246023C0286021C027FD27C04A
:1013600030ED380F3A3078F426FF06C0FAE05F9E81
:10137000300D1124532E13C08AE0389E300D1124F5
:10138000332E20620CC08E3221F426FD6BC1206406
:1013900006C08C3611F4206802C0883641F4F6018C
:1013A00093FD859193FF81916F018111C1CF982F9A
:1013B0009F7D9554933028F40C5F1F4FFFE3F98312
:1013C0000DC0833631F0833771F0833509F05BC08F
:1013D00022C0F801808189830E5F1F4F442443940B
:1013E000512C540115C03801F2E06F0E711CF80148
:1013F000A080B18026FF03C0652D70E002C06FEFB2
:101400007FEFC5012C870E94470B2C0183012C859F
:101410002F77222E17C03801F2E06F0E711CF801F1
:10142000A080B18026FF03C0652D70E002C06FEF81
:101430007FEFC5012C870E943C0B2C012C85206876
:10144000222E830123FC1BC0832D90E048165906F1
:10145000B0F4B70180E290E00E94620B3A94F4CFBE
:10146000F50127FC859127FE81915F01B70190E08E
:101470000E94620B31103A94F1E04F1A5108411466
:10148000510471F7E5C0843611F0893639F5F80159
:1014900027FF07C060817181828193810C5F1F4F9C
:1014A00008C060817181882777FD8095982F0E5F35
:1014B0001F4F2F76B22E97FF09C09095809570959B
:1014C00061957F4F8F4F9F4F2068B22E2AE030E00A
:1014D000A4010E94940BA82EA81844C0853729F4B3
:1014E0002F7EB22E2AE030E025C0F22FF97FBF2EEA
:1014F0008F36C1F018F4883579F0B4C0803719F010
:10150000883721F0AFC02F2F2061B22EB4FE0DC05E
:101510008B2D8460B82E09C024FF0AC09F2F9660CF
:10152000B92E06C028E030E005C020E130E002C05E
:1015300020E132E0F801B7FE07C06081718182814D
:1015400093810C5F1F4F06C06081718180E090E045
:101550000E5F1F4FA4010E94940BA82EA818FB2D0C
:10156000FF77BF2EB6FE0BC02B2D2E7FA51450F497
:10157000B4FE0AC0B2FC08C02B2D2E7E05C07A2C0A
:101580002B2D03C07A2C01C0752C24FF0DC0FE0149
:10159000EA0DF11D8081803311F4297E09C022FFFC
:1015A00006C07394739404C0822F867809F07394F4
:1015B00023FD13C020FF06C05A2C731418F4530CDB
:1015C0005718732C731468F4B70180E290E02C87ED
:1015D0000E94620B73942C85F5CF731410F43718A6
:1015E00001C0312C24FF12C0B70180E390E02C87AA
:1015F0000E94620B2C8522FF17C021FF03C088E5E3
:1016000090E002C088E790E0B7010CC0822F867896
:1016100059F021FD02C080E201C08BE227FD8DE27E
:10162000B70190E00E94620BA51438F4B70180E383
:1016300090E00E94620B5A94F7CFAA94F401EA0D4D
:10164000F11D8081B70190E00E94620BA110F5CFDF
:10165000332009F451CEB70180E290E00E94620B82
:101660003A94F6CFF7018681978102C08FEF9FEF02
:101670002C96E2E10C940E0CFC0105906150704038
:101680000110D8F7809590958E0F9F1F0895FC014B
:101690006150704001900110D8F7809590958E0FA1
:1016A0009F1F0895DC01FC01672F71917723E1F7FB
:1016B000329704C07C916D9370836291AE17BF071F
:1016C000C8F308950F931F93CF93DF93182F092F1B
:1016D000EB018B8181FD03C08FEF9FEF20C082FF64
:1016E00010C04E815F812C813D81421753077CF4ED
:1016F000E881F9819F012F5F3F4F39832883108351
:1017000006C0E885F985812F0995892B29F72E8157
:101710003F812F5F3F4F3F832E83812F902FDF919B
:10172000CF911F910F910895FA01AA27283051F106
:10173000203181F1E8946F936E7F6E5F7F4F8F4F02
:101740009F4FAF4FB1E03ED0B4E03CD0670F781F61
:10175000891F9A1FA11D680F791F8A1F911DA11D46
:101760006A0F711D811D911DA11D20D009F468947F
:101770003F912AE0269F11243019305D3193DEF627
:10178000CF010895462F4770405D4193B3E00FD0DD
:10179000C9F7F6CF462F4F70405D4A3318F0495DC8
:1017A00031FD4052419302D0A9F7EACFB4E0A695AB
:1017B0009795879577956795BA95C9F700976105CD
:1017C000710508959B01AC010A2E06945795479523
:1017D00037952795BA95C9F7620F731F841F951F18
:1017E000A01D08952F923F924F925F926F927F9229
:1017F0008F929F92AF92BF92CF92DF92EF92FF9221
:101800000F931F93CF93DF93CDB7DEB7CA1BDB0BCC
:101810000FB6F894DEBF0FBECDBF09942A88398871
:1018200048885F846E847D848C849B84AA84B98478
:10183000C884DF80EE80FD800C811B81AA81B98184
:10184000CE0FD11D0FB6F894DEBF0FBECDBFED0198
:061850000895F894FFCF9B
:10185600E8E8F0F0E2C1C2C2C2E5C1C2C2C2D4C168
:10186600C2C2C2C3C1C2C2C2B2C1C2C2C2A1E8E838
:10187600F0F0E25C01802500000800000000010194
:10188600C1C2C2C2B2000102030473756363657309
:1018960020706572206D6F6E7468203D20002020D8
:1018A60020006661696C20706572206D6F6E7468C9
:1018B600203D2000001F1D1F1E1F1E1F1F1E1F1E56
:1018C6001F696E666F0D0A005354415455533A20F2
:1018D600253032580D0A00434F4E4649473A2025D7
:1018E6003032580D0A0052465F43483A20253032BE
:1018F600580D0A0052465F53455455503A2025303C
:1019060032580D0A00454E5F41413A202530325883
:101916000D0A00454E5F5258414444523A20253044
:1019260032580D0A005246204E4F5420436F6E6EB9
:101936006563746564200A00776169742041434BCE
:101946002054696D65204F75740A0073656E6420B6
:101956006461746520737563636573730A006D61F2
:1019660078206175746F207472616E736D69740A84
:10197600002073657475705F6661696C6564200A22
:101986000073657420726574726965735F66616958
:101996006C6564200A0020736574206368616E6E4E
:1019A600656C5F6661696C6564200A000A73656E22
:1019B60064696E672064617461206F6E2C207069A3
:0419C6007065000048
:00000001FF
